:100000000C9448000C946C050C9465000C946500ED
:100010000C9465000C9465000C9465000C946500CC
:100020000C9465000C9465000C9465000C946500BC
:100030000C9465000C9465000C9465000C946500AC
:100040000C9465000C9465000C9465000C9465009C
:100050000C9465004E414E494E495459494E46CD87
:10006000CCCC3D0AD7233C17B7D13877CC2B32956F
:1000700095E6241FB14F0A000020410000C842004D
:10008000401C4620BCBE4CCA1B0E5AAEC59D740017
:1000900011241FBECFE5D8E0DEBFCDBF10E0A0E643
:1000A000B0E0E4E7F8E102C005900D92A636B10792
:1000B000D9F720E0A6E6B0E001C01D92A838B2074B
:1000C000E1F70E944E050C94380C0C940000672B4D
:1000D00009F0DFC0009721F48BB38E7F8BBB0895AE
:1000E0008130910521F48BB38D7F8BBB08958230D5
:1000F000910521F48BB38B7F8BBB089583309105E1
:1001000021F48BB3877F8BBB08958430910521F454
:100110008BB38F7E8BBB08958530910521F48BB313
:100120008F7D8BBB08958630910521F48BB38F7B37
:100130008BBB08958730910521F48BB38F778BBBF0
:1001400008958A30910521F488B38E7F88BB089585
:100150008B30910521F488B38D7F88BB08958C3056
:10016000910521F488B38B7F88BB08958D3091056C
:1001700021F488B3877F88BB08958E30910521F4E0
:1001800088B38F7E88BB08958F30910521F488B3A2
:100190008F7D88BB08958031910521F488B38F7BD2
:1001A00088BB08958131910521F488B38F7788BB8E
:1001B00008958431910521F485B38E7F85BB089520
:1001C0008531910521F485B38D7F85BB08958631F6
:1001D000910521F485B38B7F85BB08958731910507
:1001E00021F485B3877F85BB08958831910521F47B
:1001F00085B38F7E85BB08958931910521F485B340
:100200008F7D85BB08958A31910521F485B38F7B5D
:1002100085BB08958B31910521F485B38F7785BB1C
:1002200008958E31910521F482B38E7F82BB0895AB
:100230008F31910521F482B38D7F82BB0895803286
:10024000910521F482B38B7F82BB089581329105A1
:1002500021F482B3877F82BB08958232910521F415
:1002600082B38F7E82BB08958332910521F482B3DD
:100270008F7D82BB08958432910521F482B38F7BF8
:1002800082BB0895859709F0E1C082B38F7782BB66
:100290000895009721F48BB381608BBB0895813062
:1002A000910521F48BB382608BBB08958230910558
:1002B00021F48BB384608BBB08958330910521F4C6
:1002C0008BB388608BBB08958430910521F48BB388
:1002D00080618BBB08958530910521F48BB38062DA
:1002E0008BBB08958630910521F48BB380648BBB62
:1002F00008958730910521F48BB380688BBB0895F6
:100300008A30910521F488B3816088BB08958B30D1
:10031000910521F488B3826088BB08958C309105E3
:1003200021F488B3846088BB08958D30910521F451
:1003300088B3886088BB08958E30910521F488B316
:10034000806188BB08958F30910521F488B3806265
:1003500088BB08958031910521F488B3806488BBFF
:1003600008958131910521F488B3806888BB089590
:100370008431910521F485B3816085BB0895853171
:10038000910521F485B3826085BB0895863191057E
:1003900021F485B3846085BB08958731910521F4EC
:1003A00085B3886085BB08958831910521F485B3B4
:1003B000806185BB08958931910521F485B3806200
:1003C00085BB08958A31910521F485B3806485BB8E
:1003D00008958B31910521F485B3806885BB08951C
:1003E0008E31910521F482B3816082BB08958F31F3
:1003F000910521F482B3826082BB08958032910519
:1004000021F482B3846082BB08958132910521F486
:1004100082B3886082BB08958232910521F482B351
:10042000806182BB08958332910521F482B380629A
:1004300082BB08958432910521F482B3806482BB2B
:100440000895859719F482B3806882BB0895CF938D
:10045000C82F80FF07C061E070E088E190E00E9453
:10046000670006C060E070E088E190E00E946700ED
:10047000C1FF07C061E070E089E190E00E94670081
:1004800006C060E070E089E190E00E946700C2FF72
:1004900007C061E070E08AE190E00E94670006C05A
:1004A00060E070E08AE190E00E946700C3FF07C04F
:1004B00061E070E08BE190E00E94670006C060E0C0
:1004C00070E08BE190E00E946700CF910895CF9398
:1004D000C82F60E070E084E190E00E9467008C2FFC
:1004E0000E94270261E070E086E190E00E946700D0
:1004F0008FEC97E00197F1F700C0000060E070E03A
:1005000086E190E00E9467008FEC97E00197F1F799
:1005100000C00000CF91089580E00E94670281E052
:100520000E9467020895CF93813061F480E8860FBE
:10053000C62FCF7082958F700E9467028C2F0E9409
:1005400067020DC0823059F480EC860FC62FCF7041
:1005500082958F700E9467028C2F0E946702CF9154
:10056000089580E00E9427028FE39CE90197F1F74C
:1005700000C0000083E00E9467028FE097E20197CD
:10058000F1F700C0000083E00E9467028FEE95E55E
:100590000197F1F700C0000083E00E94670282E04B
:1005A0000E94670282E00E94670288E00E94670260
:1005B00080E00E9467028CE00E94670280E00E9457
:1005C000670286E00E9467020895CF93DF93D82FD9
:1005D000DF70C82FC07F61E070E084E190E00E948E
:1005E00067008C2F82958F700E94270261E070E077
:1005F00086E190E00E9467008FEC97E00197F1F7A9
:1006000000C0000060E070E086E190E00E946700BA
:100610008FEC97E00197F1F700C000008D2F0E944A
:10062000270261E070E086E190E00E9467008FECB5
:1006300097E00197F1F700C0000060E070E086E10C
:1006400090E00E9467008FEC97E00197F1F700C0FF
:100650000000DF91CF9108950F931F93CF93DF9305
:100660008C01C0E0D0E003C00E94E5022196F801B1
:10067000EC0FFD1F80818111F7CFDF91CF911F918A
:100680000F9108958FEE88BB8FE19EE40197F1F7FB
:1006900000C0000086B38F708B3009F461C018F47D
:1006A000873031F00BC08D3029F08E3029F006C034
:1006B00081E3089583E308958BE208958FED88BB6D
:1006C0008FE19EE40197F1F700C0000086B38F70C0
:1006D0008B3009F447C018F4873031F00BC08D30EF
:1006E00029F08E3029F006C084E3089586E308954A
:1006F0008DE208958FEB88BB8FE19EE40197F1F7BF
:1007000000C0000086B38F708B3071F118F4873011
:1007100031F00BC08D3029F08E3029F006C087E310
:10072000089589E308958AE208958FE788BB8FE1F1
:100730009EE40197F1F700C0000086B38F708B3004
:10074000A9F018F4873031F09DCF8D3029F08E302C
:1007500029F098CF8EE208958DE308958FE20895F1
:1007600082E3089585E3089588E3089580E308957A
:10077000CF93DF9361E081E00E949302C0E0D0E07C
:1007800026C00E944203809370002FEF82E597E01D
:10079000215080409040E1F700C00000809170003F
:1007A0008B3271F08D3261F08A3251F08F3241F02C
:1007B000FE01E458FF4F80830E94E502219607C0A6
:1007C000809371000E94E502C0E0D0E026C0C930ED
:1007D000D105BCF2F9CF0E944203809370002FEF45
:1007E00082E597E0215080409040E1F700C0000092
:1007F000809170008D3341F0FE01EA59FF4F8083F4
:100800000E94E502219609C061E082E00E94930205
:10081000809170000E94E50203C0C930D105DCF26E
:10082000DF91CF9108958F929F92AF92BF92EF92F6
:10083000FF920F931F93CF93DF938CE790E00E947A
:100840007307EC0186E690E00E9473078C018CE749
:1008500090E00E946F074B015C0186E690E00E94E9
:100860006F07209171002B3261F020F42A3209F4D5
:1008700099C009C12D3209F447C02F3209F4DAC0FA
:1008800002C1C00FD11F9B01AC01C501B4010E9480
:10089000AA054B015C01BE010D2E000C880B990BC3
:1008A0000E944E069B01AC01C501B4010E94A9053E
:1008B00020E030E04AE754E40E94DA060E9416067F
:1008C000683E83E078074CF0CB0168EE73E00E944D
:1008D0004707C60FD71F682F792F7F936F93DF933A
:1008E000CF9380E690E09F938F9382E790E09F9371
:1008F0008F930E9499078DB79EB708960FB6F8940C
:100900009EBF0FBE8DBFBFC0C01BD10B9B01AC01F2
:10091000C501B4010E94A9054B015C01BE010D2E69
:10092000000C880B990B0E944E069B01AC01C5017F
:10093000B4010E94A90520E030E04AE754E40E9497
:10094000DA060E9416067723B4F42197BE010D2E15
:10095000000C880B990B0E944E069B01AC01C5014F
:10096000B4010E94A90520E030E04AE754E40E9467
:10097000DA060E9416067F936F93DF93CF9380E68B
:1009800090E09F938F9382E790E09F938F930E94D4
:1009900099078DB79EB708960FB6F8949EBF0FBE05
:1009A0008DBF71C0C09F7001C19FF00CD09FF00C33
:1009B00011249B01AC01C501B4010E94DA064B0170
:1009C0005C01B7010F2C000C880B990B0E944E069E
:1009D0009B01AC01C501B4010E94A90520E030E0F3
:1009E0004AE754E40E94DA060E941606683E93E045
:1009F00079074CF0CB0168EE73E00E944707E60EE2
:100A0000F71E682F792F7F936F93FF92EF9280E606
:100A100090E09F938F9382E790E09F938F930E9443
:100A200099078DB79EB708960FB6F8949EBF0FBE74
:100A30008DBF29C0CE01B8010E944707262F372F4E
:100A4000BC0148EE53E0649FC001659F900D749F08
:100A5000900D1124B8010E9447077F936F933F9335
:100A60002F9380E690E09F938F9382E790E09F938F
:100A70008F930E9499078DB79EB708960FB6F8948A
:100A80009EBF0FBE8DBFDF91CF911F910F91FF9041
:100A9000EF90BF90AF909F908F9008958FE598E072
:100AA0009EBF8DBFCFEFC4BBC3BB0E94B10280EF1E
:100AB00087BBC8BB82E085BF80E48BBF78940E946F
:100AC000B80363E082E00E9493020E94130482E76D
:100AD00090E00E942C03F3CF1F920F920FB60F925B
:100AE00011242F933F934F935F936F937F938F9333
:100AF0009F93AF93BF93EF93FF930E948C028AE082
:100B0000ECE7F0E0DF01982F1D929A95E9F7E6E611
:100B1000F0E0DF01982F1D929A95E9F7E2E7F0E007
:100B2000DF011D928A95E9F7109270001092710012
:100B3000FF91EF91BF91AF919F918F917F916F91B5
:100B40005F914F913F912F910F900FBE0F901F908B
:100B500018955058BB27AA270E94C1050C94A006DF
:100B60000E94920638F00E94990620F039F49F3FC7
:100B700019F426F40C948F060EF4E095E7FB0C9420
:100B80008906E92F0E94B10658F3BA176207730766
:100B90008407950720F079F4A6F50C94D3060EF49B
:100BA000E0950B2EBA2FA02D0B01B90190010C017D
:100BB000CA01A0011124FF27591B99F0593F50F495
:100BC000503E68F11A16F040A22F232F342F4427ED
:100BD000585FF3CF469537952795A795F0405395E5
:100BE000C9F77EF41F16BA0B620B730B840BBAF0B5
:100BF0009150A1F0FF0FBB1F661F771F881FC2F720
:100C00000EC0BA0F621F731F841F48F48795779533
:100C10006795B795F7959E3F08F0B0CF9395880FED
:100C200008F09927EE0F9795879508950E941D0665
:100C30006894B1110C94D40608950E94B90688F006
:100C40009F5798F0B92F9927B751B0F0E1F0660F90
:100C5000771F881F991F1AF0BA95C9F714C0B130D1
:100C600091F00E94D306B1E008950C94D306672F4B
:100C7000782F8827B85F39F0B93FCCF38695779500
:100C80006795B395D9F73EF49095809570956195E9
:100C90007F4F8F4F9F4F0895E89409C097FB3EF414
:100CA00090958095709561957F4F8F4F9F4F9923B9
:100CB000A9F0F92F96E9BB279395F6958795779537
:100CC0006795B795F111F8CFFAF4BB0F11F460FFF7
:100CD0001BC06F5F7F4F8F4F9F4F16C0882311F04F
:100CE00096E911C0772321F09EE8872F762F05C063
:100CF000662371F096E8862F70E060E02AF09A95FE
:100D0000660F771F881FDAF7880F9695879597F9F2
:100D1000089597F99F6780E870E060E008959FEF7D
:100D200080EC089500240A94161617061806090682
:100D3000089500240A941216130614060506089551
:100D4000092E0394000C11F4882352F0BB0F40F4D9
:100D5000BF2B11F460FF04C06F5F7F4F8F4F9F4F19
:100D6000089557FD9058440F551F59F05F3F71F09B
:100D70004795880F97FB991F61F09F3F79F0879502
:100D80000895121613061406551FF2CF4695F1DF8B
:100D900008C0161617061806991FF1CF869571051B
:100DA000610508940895E894BB2766277727CB014F
:100DB00097F908950E94ED060C94A0060E949206F1
:100DC00038F00E94990620F0952311F00C948906C2
:100DD0000C948F0611240C94D4060E94B10670F373
:100DE000959FC1F3950F50E0551F629FF001729FD0
:100DF000BB27F00DB11D639FAA27F00DB11DAA1FDF
:100E0000649F6627B00DA11D661F829F2227B00D2B
:100E1000A11D621F739FB00DA11D621F839FA00DB6
:100E2000611D221F749F3327A00D611D231F849F06
:100E3000600D211D822F762F6A2F11249F5750405D
:100E40009AF0F1F088234AF0EE0FFF1FBB1F661FD8
:100E5000771F881F91505040A9F79E3F510580F0A1
:100E60000C9489060C94D4065F3FE4F3983ED4F3C7
:100E7000869577956795B795F795E7959F5FC1F745
:100E8000FE2B880F911D9695879597F9089597FBEE
:100E9000072E16F4009407D077FD09D00E945B0757
:100EA00007FC05D03EF4909581959F4F089570956D
:100EB00061957F4F0895AA1BBB1B51E107C0AA1F74
:100EC000BB1FA617B70710F0A61BB70B881F991FEB
:100ED0005A95A9F780959095BC01CD010895662794
:100EE00077270C949C09FC0188279927E894219185
:100EF0002032E9F3293010F02E30C8F32B3241F0C4
:100F00002D3239F4689404C00E949107820F911D1C
:100F1000219120532A30C0F31EF4909581959F4F64
:100F200008957AE0979F902D879F802D910D112431
:100F30000895AEE0B0E0EFE9F7E00C94000C0D8905
:100F40001E8986E08C831A8309838FEF9FE79E8337
:100F50008D83AE01475E5F4F6F89788DCE0101961C
:100F60000E94BB07EF81F885E00FF11F10822E96DB
:100F7000E4E00C941C0CABE0B0E0E1ECF7E00C9486
:100F8000F20B6C017B018A01FC01178216828381BE
:100F900081FFCCC1CE0101963C01F6019381F7019E
:100FA00093FD859193FF81917F01882309F4BAC154
:100FB000853239F493FD859193FF81917F018532CC
:100FC00029F4B60190E00E94210BE7CF912C212C4F
:100FD000312CFFE1F315D8F08B3279F038F4803200
:100FE00079F08332A1F4232D20611DC08D3261F090
:100FF000803369F4232D216016C0832D8260382E42
:10100000E32DE4603E2E2AC0F32DF8601DC037FCAE
:101010002DC020ED280F2A3040F08E32B9F436FC76
:1010200081C1232D2064322E19C036FE06C08AE00D
:10103000989E200D1124922E11C0EAE02E9E200DC4
:101040001124222EF32DF0623F2E08C08C3621F49D
:10105000832D8068382E02C0883641F4F70193FD55
:10106000859193FF81917F018111B3CF982F9F7D4F
:101070009554933028F40C5F1F4F9FE399830DC064
:10108000833631F0833771F0833509F059C021C0C0
:10109000F801808189830E5F1F4F88248394912CEF
:1010A000530113C02801F2E04F0E511CF801A0803B
:1010B000B18036FE03C0692D70E002C06FEF7FEF94
:1010C000C5010E94160B4C018201F32DFF773F2EC4
:1010D00016C0280122E0420E511CF801A080B18008
:1010E00036FE03C0692D70E002C06FEF7FEFC501CF
:1010F0000E940B0B4C01F32DF0683F2E820133FC54
:101100001BC0822D90E088169906B0F4B60180E2EB
:1011100090E00E94210B2A94F4CFF50137FC8591D1
:1011200037FE81915F01B60190E00E94210B2110F2
:101130002A9421E0821A91088114910471F7E8C081
:10114000843611F0893641F5F80137FE07C0608119
:101150007181828193810C5F1F4F08C06081718112
:10116000072E000C880B990B0E5F1F4FF32DFF7697
:101170003F2E97FF09C090958095709561957F4FA0
:101180008F4F9F4FF0683F2E2AE030E0A3010E946E
:101190005D0B882E861845C0853731F4232D2F7EB0
:1011A000B22E2AE030E025C0932D997FB92E8F36DC
:1011B000C1F018F4883579F0B5C0803719F0883758
:1011C00021F0B0C0E92FE061BE2EB4FE0DC0FB2DB2
:1011D000F460BF2E09C034FE0AC0292F2660B22E4B
:1011E00006C028E030E005C020E130E002C020E188
:1011F00032E0F801B7FE07C060817181828193817E
:101200000C5F1F4F06C06081718180E090E00E5F2F
:101210001F4FA3010E945D0B882E8618FB2DFF77C0
:101220003F2E36FE0DC0232D2E7FA22E891458F49A
:1012300034FE0BC032FC09C0832D8E7EA82E05C063
:10124000B82CA32C03C0B82C01C0B92CA4FE0FC02D
:10125000FE01E80DF11D8081803321F49A2D997EE5
:10126000A92E09C0A2FE06C0B394B39404C08A2D6F
:10127000867809F0B394A3FC11C0A0FE06C0B21496
:1012800088F4280C922C9B180EC0B21460F4B6019E
:1012900080E290E00E94210BB394F7CFB21418F4CF
:1012A0002B1802C0982C212CA4FE10C0B60180E39C
:1012B00090E00E94210BA2FE17C0A1FC03C088E7AA
:1012C00090E002C088E590E0B6010CC08A2D8678D7
:1012D00059F0A1FE02C08BE201C080E2A7FC8DE2C2
:1012E000B60190E00E94210B891438F4B60180E326
:1012F00090E00E94210B9A94F7CF8A94F301E80DB5
:10130000F11D8081B60190E00E94210B8110F5CF84
:10131000222009F442CEB60180E290E00E94210B27
:101320002A94F6CFF6018681978102C08FEF9FEF56
:101330002B96E2E10C940E0CA0E0B0E0E2EAF9E0BA
:101340000C94F80BEC016B016115710519F0FB01B0
:10135000918380837E01FFEFEF1AFF0A0881802FBF
:1013600090E00E94EA0A892B11F0E701F3CF0D32D9
:1013700039F47E0182E0E80EF11C098111E008C019
:101380000B3229F47E0192E0E90EF11C098110E094
:10139000E701219743E050E06CE570E0CE010E9448
:1013A000F30A892BC1F4239645E050E067E570E02D
:1013B000CE010E94F30A892B09F42596C114D104A9
:1013C00019F0F601D183C0831111F6C060E070E01E
:1013D00080E89FE7FAC043E050E064E570E0CE01AA
:1013E0000E94F30A892B59F4C114D10409F4E9C00D
:1013F000F2E0EF0EF11CF601F182E082E2C020E0A3
:1014000030E0A901C0E0D0E0F70180EDA82EA00EE9
:1014100089E08A1530F1912F9260B92E812F887062
:1014200012FF04C0811124C0219622C0811121978E
:10143000A5E0B0E00E94E70BDC01CB01880F991F0B
:10144000AA1FBB1F9C01AD012A0D311D411D511D5D
:10145000283989E93807480789E1580748F01660B4
:1014600006C09EEFA9120AC013FD40C01860B12E3D
:101470008FEFE81AF80A00811B2DC6CF802F8F7DD1
:101480008534A1F580818D3211F4106106C08B3254
:1014900021F0319661E070E004C08181329662E013
:1014A00070E080538A3018F0E61BF70B1FC060E035
:1014B00070E060389CE079075CF4DB01AA0FBB1F89
:1014C000AA0FBB1F6A0F7B1F660F771F680F711D66
:1014D0003196DF0111978C9180538A3050F314FFBD
:1014E00003C0719561957109C60FD71F11FF08C020
:1014F000C114D10429F0CF010197F60191838083B3
:10150000CA01B9010E944C06212F2370233019F023
:101510004B015C0106C04B015C01B7FAB094B7F80F
:10152000B09420E030E0A901C501B4010E94BB0BDA
:10153000882309F43EC0D7FF06C0D195C195D109D3
:1015400003E710E002C00BE810E06801F8E1CF1AF1
:10155000D10890E2E92EF12CCE15DF0574F0F801E8
:101560002591359145915491C501B4010E94DA0647
:101570004B015C01CE19DF09EFCF04501109F5943E
:10158000E7940C151D0541F78A2D880F8B2D881FB8
:101590008F3F49F020E030E0A901C501B4010E946D
:1015A000BB0B811106C082E290E09093870080938C
:1015B0008600C501B40109C060E070E080E89FEFDB
:1015C00004C060E070E080EC9FE7CDB7DEB7ECE0F0
:1015D0000C94140C91110C94E40B803219F0895086
:1015E0008550C8F70895FB01DC014150504088F058
:1015F0008D9181341CF08B350CF4805E65916134E3
:101600001CF06B350CF4605E861B611171F3990B55
:101610000895881BFCCFFC010590615070400110BB
:10162000D8F7809590958E0F9F1F0895FC0161500B
:10163000704001900110D8F7809590958E0F9F1FF4
:1016400008950F931F93CF93DF93FB01238121FD17
:1016500003C08FEF9FEF2CC022FF16C04681578139
:10166000248135814217530744F4A081B1819D0143
:101670002F5F3F4F318320838C93268137812F5FEB
:101680003F4F3783268314C08B01EC01FB0100849C
:10169000F185E02D0995892BE1F6D80116968D91FB
:1016A0009C911797019617969C938E931697CE014F
:1016B000DF91CF911F910F910895FA01AA27283049
:1016C00051F1203181F1E8946F936E7F6E5F7F4F0F
:1016D0008F4F9F4FAF4FB1E03ED0B4E03CD0670F8B
:1016E000781F891F9A1FA11D680F791F8A1F911DDE
:1016F000A11D6A0F711D811D911DA11D20D009F42E
:1017000068943F912AE0269F11243019305D31936F
:10171000DEF6CF010895462F4770405D4193B3E058
:101720000FD0C9F7F6CF462F4F70405D4A3318F0FF
:10173000495D31FD4052419302D0A9F7EACFB4E0B0
:10174000A6959795879577956795BA95C9F7009768
:101750006105710508959B01AC010A2E0694579509
:10176000479537952795BA95C9F7620F731F841F60
:10177000951FA01D08950E94C00B08F481E00895F4
:10178000990F0008550FAA0BE0E8FEEF1616170692
:10179000E807F907C0F012161306E407F50798F0FA
:1017A000621B730B840B950B39F40A2661F0232B13
:1017B000242B252B21F408950A2609F4A140A6958F
:1017C0008FEF811D811D08959927882708950E9414
:1017D000290CA59F900DB49F900DA49F800D911D85
:1017E000112408952F923F924F925F926F927F92B1
:1017F0008F929F92AF92BF92CF92DF92EF92FF9221
:101800000F931F93CF93DF93CDB7DEB7CA1BDB0BCC
:101810000FB6F894DEBF0FBECDBF09942A88398871
:1018200048885F846E847D848C849B84AA84B98478
:10183000C884DF80EE80FD800C811B81AA81B98184
:10184000CE0FD11D0FB6F894DEBF0FBECDBFED0198
:101850000895A29FB001B39FC001A39F700D811D89
:101860001124911DB29F700D811D1124911D0895A9
:04187000F894FFCF1A
:0618740025642E2564002E
:00000001FF
